:020000040800F2
:10000000A0060020D5000008990E0008950E0008F3
:1000100000000000000000000000000000000000E0
:10002000000000000000000000000000170F0008A2
:100030000000000000000000150F0008190F000864
:10004000E7000008E7000008E7000008E7000008F4
:10005000E7000008E7000008E7000008E7000008E4
:10006000E7000008E7000008E7000008E7000008D4
:10007000E7000008E7000008E7000008E7000008C4
:10008000E7000008E7000008E700000800000000A3
:10009000E7000008E7000008E7000008E7000008A4
:1000A000E7000008E7000008E7000008E700000894
:1000B000E7000008E700000800000000E700000873
:1000C0000348854600F04EF8004800472118000814
:1000D000A00600200448804704480047FEE7FEE7EA
:1000E000FEE7FEE7FEE7FEE7950F0008C100000807
:1000F00030B50B46014600202022012409E00D46C0
:10010000D5409D4205D31D469540491B2546954047
:1001100040191546521E002DF1DC30BD03460B433D
:100120009B0703D009E008C9121F08C0042AFAD2AD
:1001300003E00B780370401C491C521EF9D2704733
:10014000D2B201E00270401C491EFBD2704700226F
:10015000F6E710B513460A4604461946FFF7F0FFC6
:10016000204610BD064C0125064E05E0E36807CC8D
:100170002B430C3C98471034B442F7D3FFF7A4FF4D
:10018000781E0008981E00087047000070B50346EE
:10019000002200240020DFE0012696400D68354053
:1001A0002C46002C77D04D68012D08D04D68022DCB
:1001B00005D04D68112D02D04D68122D18D19868C8
:1001C00056000325B5400646AE4330465600CD687E
:1001D000B540284398605868012595400646AE43CF
:1001E000304610264D6835402D099540284358600B
:1001F000D86856000325B5400646AE433046560043
:100200008D68B5402843D8604D68022D02D04D68F6
:10021000122D15D1D508AE001D462035A859550719
:10022000EE0E0F25B5400646AE4330465607F60E95
:100230000D69B5402843D508AD001E4620367051E3
:10024000186856000325B5400646AE4330460D7982
:10025000AD07AD0F5600B54028431860012636079C
:100260004D683540B54276D13E4D6D6B0126354324
:100270003C4E75633C4D9608B600A85995072E0F65
:100280000F25B5400646AE43304605252D07AB4247
:1002900002D100251AE05EE0344DAB4201D10125C8
:1002A00014E0334DAB4201D102250FE0314DAB429A
:1002B00001D103250AE0304DAB4201D1042505E010
:1002C0002E4DAB4201D1052500E006259607360FDD
:1002D000B5402843244D9608B600A851284D2868FB
:1002E0000546A5432846012636044D683540B542EB
:1002F00002D1054625432846214D286068680546F9
:10030000A5432846012676044D683540B54202D102
:100310000546254328461A4D6860A8680546A5434A
:100320002846012636054D683540B54202D10546BE
:1003300025432846124DA860E8680546A54328468F
:10034000012676054D683540B54202D10546254364
:1003500028460B4DE860521C0D68D540002D00D09A
:100360001AE770BD00100240080001400004005070
:1003700000080050000C005000100050001C0050FD
:1003800000040140024613690B40002B01D00120FC
:1003900000E00020704710B5426913460B401B0473
:1003A0000C4694432343836110BD002A01D0816130
:1003B00000E081627047000001480068704700005B
:1003C00004000020034800680349097840180149E7
:1003D00008607047040000200C00002010B50024C5
:1003E000084800684021084306490860002000F0E2
:1003F0000BF8002801D0012401E000F02FF820467E
:1004000010BD00000020024070B50446104801787D
:100410007D20C000FFF76CFE064631460D4800689F
:10042000FFF766FE054600F019FD002801D0012007
:1004300070BD042C07D200222146501E00F01EF889
:100440000548046001E00120F2E70020F0E7000029
:100450000C00002010000020080000200648406B1F
:1004600001210843044948630846806B0904084396
:1004700001498863704700000010024070B50446CF
:100480000D4616462946204600F008FD70BD0000C6
:10049000F8B504460D46002C01D10120F8BD79487D
:1004A0000068C007C00FA8420ED276480068400816
:1004B000400028437349086008460068C007C00F21
:1004C000A84201D00120E9E7022120680840022863
:1004D00007D16D48C068F0218843A16808436A4984
:1004E000C8602078C007C00F00284CD06068022880
:1004F00009D165480068012149040840400C0028E2
:1005000024D10120CAE76068032809D15E48006849
:10051000012149060840400E002817D10120BDE7FF
:100520006068012808D15848006804210840800804
:1005300000280BD10120B1E753480068012149028E
:100540000840400A002801D10120A7E74E48C068B2
:1005500080088000616808434B49C860FFF72CFFA2
:100560000646606802280FD107E0FFF725FF801BD1
:100570004649884201D9032090E74348C0680C21CE
:1005800008400828F1D134E0606803280FD107E063
:10059000FFF712FF801B3D49884201D903207DE708
:1005A0003948C0680C2108400C28F1D121E060686E
:1005B00001280FD107E0FFF7FFFE801B3349884277
:1005C00001D903206AE73048C0680C21084004289C
:1005D000F1D10EE007E0FFF7EFFE801B2B498842C8
:1005E00001D903205AE72848C0680C210840002898
:1005F000F1D124480068C007C00FA8420ED9214895
:1006000000684008400028431E490860084600680A
:10061000C007C00FA84201D001203FE70421206895
:100620000840042808D11848C068072109028843F7
:10063000E16808431449C860082120680840082878
:1006400009D11148C0680721C90288432169C9003E
:1006500008430D49C86000F01FF80B49C968F02233
:10066000114009090A4A515CC8400A490860002043
:10067000FFF7CAFE0746002F01D038460EE70020DC
:100680000CE7000000200240001002408813000028
:10069000341E000810000020FEB52E48C7680C204C
:1006A0003840002845D0042804D008280CD00C2855
:1006B0003ED10BE02748006810210840002801D0F7
:1006C000254C00E0254C41E0254C3FE00F20800404
:1006D0003840800C23490E5C032080053840800D93
:1006E000401C01901B48C0680121090408400028F3
:1006F00007D01B49714308460199FFF7F9FC0546ED
:1007000014E01448006810210840002807D012495E
:10071000714308460199FFF7EBFC054606E00F49D7
:10072000714308460199FFF7E3FC05462C460DE0AE
:1007300000BF08484068072149030840400B00906B
:100740000098401C01218140CC0300BF00BF20461F
:10075000FEBD00000010024000093D000024F4002E
:1007600000127A004C1E0008FEB50446002C01D190
:100770000120FEBDFA48C7680C210F40C068012166
:100780000904084001902078C007C00F002872D0EB
:10079000082F04D00C2F0FD1019888420CD1F048BB
:1007A0000068012149040840400C002863D06068BB
:1007B000002860D10120DCE700BF01210904606846
:1007C000884205D1E64800680843E549086027E00B
:1007D00005210904606888420ED1E14800680121C2
:1007E00089040843DE4908600846006801210904BD
:1007F0000843DB49086013E0D94800680121090477
:100800008843D74908600846006801210904084068
:10081000009000BFD248006889008843D049086032
:1008200000BF6068002813D0FFF7C6FD054606E04C
:10083000FFF7C2FD401B642801D9032099E7C8488F
:100840000068012149040840400C0028F0D012E063
:10085000FFF7B2FD054606E0FFF7AEFD401B64283A
:1008600001D9032085E7BE480068012149040840FA
:10087000400C0028F0D102212068084002286BD1EA
:10088000E66820203040002809D0B54800682021C3
:100890000843B34908602021304688430646042FA8
:1008A00004D00C2F33D10198002830D1AC48006817
:1008B000042108408008002803D0002E01D1012027
:1008C00057E7A74840681F210902884321690902A8
:1008D0000843A3494860084600680921884330431B
:1008E0009F490860FFF7D8FE9D49C968F022114072
:1008F00009099C4A515CC8409B4908600020FFF7E9
:1009000083FD0290029800283FD0029831E7002E24
:1009100023D09348006809218843304390490860F8
:10092000FFF74AFD054606E0FFF746FD401B02289B
:1009300001D903201DE78A48006804210840800887
:100940000028F1D0864840681F21090288432169A8
:10095000090208438249486017E08148006840085E
:1009600040007F490860FFF727FD054606E0FFF7D6
:1009700023FD401B022801D90320FAE678480068CD
:100980000421084080080028F1D110212068084087
:10099000102867D1002F36D17148006849010840FE
:1009A000400A002804D0E069002801D10120E0E6D7
:1009B0006B484068072149038843616A08436849D6
:1009C0004860084640680002000A218C0906084376
:1009D00063494860606A400B401C01218140C803A4
:1009E0005F49C968F022114009095E4A515CC8405C
:1009F0005D4908600020FFF707FD0290029800287B
:100A00004BD00298B5E6E06900282CD05448006825
:100A1000FF210131084352490860FFF7CDFC05462C
:100A200006E0FFF7C9FC401B022801D90320A0E61D
:100A30004B480068012149020840400A0028F0D0D4
:100A400047484068072149038843616A084344498D
:100A50004860084640680002000A218C09060843E5
:100A60003F49486019E03E480068FF210131884352
:100A70003B490860FFF7A0FC054606E0FFF79CFC39
:100A8000401B022801D9032073E635480068012184
:100A900049020840400A0028F0D108212068084097
:100AA000082839D1606900281BD02D4840300069E2
:100AB000012108432A4940310861FFF77DFC0546C2
:100AC00006E0FFF779FC401B022801D9032050E61D
:100AD0002348403000690221084040080028F0D037
:100AE0001AE01F4840300069400840001C4940316E
:100AF0000861FFF761FC054606E0FFF75DFC401B5F
:100B0000022801D9032034E615484030006902214B
:100B1000084040080028F0D104212068084004283B
:100B200079D1002000900E48806B8906084000288B
:100B300006D10B48806B0843094988630120009067
:100B40000A480068FF210131084000281ED10748EB
:100B50000068084305490860FFF72EFC05460EE0D3
:100B600000100240341E00081000002000700040F9
:100B7000FFF722FC401B642801D90320F9E5B348A4
:100B80000068FF21013108400028F1D000BFFF219B
:100B90000131A068884205D1AD4800690843AC49DD
:100BA000086130E0A06800280DD1A9480069FF2144
:100BB00001318843A6490861084600690915884340
:100BC000A34908611FE005210902A06888420DD1F0
:100BD0009F4800690121890208439D490861084630
:100BE0000069891508439A4908610CE09848006932
:100BF000FF210131884396490861084600690915BB
:100C000088439349086100BFA068002815D0FFF70A
:100C1000D3FB054608E031E0FFF7CEFB401B8D49D2
:100C2000884201D90320A4E58948006901214902CD
:100C30000840400A0028EFD013E0FFF7BDFB05464F
:100C400007E0FFF7B9FB401B8249884201D9032026
:100C50008FE57F480069012149020840400A0028C9
:100C6000EFD10098012808D179484038806B0121E4
:100C70000907884376494039886300BF20212068EE
:100C80000840202852D1A06900282BD000BF70480E
:100C900040388068012108436D4940398860084622
:100CA000406B012108436A49403948636A48006A39
:100CB0000121490308436849086200BFFFF77CFB34
:100CC000054606E0FFF778FB401B022801D9032008
:100CD0004FE55F48403880680221084040080028FE
:100CE000F0D023E000BF5A484038806840084000F8
:100CF0005749403988605848006A012149038843B0
:100D00005549086200BFFFF757FB054606E0FFF7AD
:100D100053FB401B022801D903202AE54C484038E8
:100D200080680221084040080028F0D1A06A00280D
:100D30004CD00C2F69D0A06A022848D144484038D2
:100D40000068012109068843414940390860FFF7DE
:100D500033FB054606E0FFF72FFB401B022801D9B5
:100D6000032006E53A48403800680121490608405A
:100D7000400E0028EFD1216BE06A0843616B084305
:100D800033494039C968FD22120491430843304970
:100D90004039C860084600680121090608432C490B
:100DA00040390860FFF708FB054606E0FFF704FB43
:100DB000401B022801D90320DBE4254840380068A5
:100DC000012149060840400E0028EFD03CE02048B1
:100DD000403800680121090688431D4940390860F0
:100DE000FFF7EAFA054606E0FFF7E6FA401B02289D
:100DF00001D90320BDE416484038006801214906A6
:100E00000840400E0028EFD11EE0A06A012800D162
:100E1000AFE40F484038C0680190012109040198EF
:100E20000840E16A88420DD10F21890401980840E9
:100E3000216B884206D10321890501980840616B26
:100E4000884201D0012094E4002092E40070004028
:100E500040100240881300000000014070B50446B5
:100E60002546681E0949884201D901200CE0681E08
:100E7000074948610321081F00F010F800200449C9
:100E8000886107200861002070BD0000FFFFFF009F
:100E900000E000E000BFFEE77047000010B500284A
:100EA00019DA1A4A03071B0F083B9B089B00D2580C
:100EB0008307DC0EFF23A3409A438B071B0E840796
:100EC000E40EA3401A43114B0407240F083CA40866
:100ED000A4001A5118E00E4A03231B02D2188308FB
:100EE0009B00D2588307DC0EFF23A3409A438B0755
:100EF0001B0E8407E40EA3401A43054B032424026F
:100F00001B198408A4001A5110BD00001CED00E05C
:100F100000E100E07047704710B5FFF753FA10BDCD
:100F200000B593B0382105A8FFF711F914216846E0
:100F3000FFF70DF9164800680321C9028843012113
:100F4000C9024018124908601020059001200C9039
:100F500000200D90052040030E9000200F9005A862
:100F6000FFF702FC002801D0FFF70EF90F200090D8
:100F70000020019002900390049000216846FFF742
:100F800087FA002801D0FFF7FFF813B000BD00007A
:100F90000070004015480068FF21013108431349E3
:100FA00008600846C068124908401049C8600846F1
:100FB0000068104908400D490860084680684008EC
:100FC0004000886008460068012189048843074979
:100FD00008600846C068FD21090488430349C860C9
:100FE00000200861C803044988607047001002406F
:100FF0000C40FF88F6FFF6FE00ED00E002E008C8B6
:10100000121F08C1002AFAD170477047002001E082
:1010100001C1121F002AFBD1704738B50446207861
:10102000002802D0012810D106E060680078009006
:10103000684600F00DF809E061680A7868460270B9
:101040004978417000F01AF800E000BF00BF38BDD9
:101050000178092902D00A2908D103E00121054AB3
:10106000117004E00121044A117000E000BF00BFCC
:10107000704700003E0000203F0000207047000045
:1010800000B587B0142102A8FFF761F800BF0D4832
:10109000C06A022108430B49C8620846C06A02219F
:1010A0000840019000BF00BF042002900020039080
:1010B000049002A90448FFF769F80448044908604D
:1010C00007B000BD00100240000400509D1200084F
:1010D0002800002008B50F480078032803D100201D
:1010E0000C49087004E00B480078401C094908705E
:1010F00001200949087009480068009005480078F7
:1011000069464870684604494860022000F076FC51
:1011100008BD00004000002034000020601E0008D0
:1011200010B502480068804710BD0000280000206C
:101130007047704708B50B480078002810D0012090
:101140000949087009480068009006480078694617
:101150004870684604494860022000F04FFC00BF18
:1011600008BD000040000020340000205C1E000884
:101170001CB530480078002838D02F4800682F4927
:1011800008602F4800682F4988420AD12E4800780D
:10119000002803D12D48007800F074FDFFF7CAFF46
:1011A0001DE0254800682749884218D100202849B9
:1011B000087028480068019001A848600020224972
:1011C000087023480123AF229200194600900020A6
:1011D00000F0BCFD1D490870FFF7AAFF00BF1648CC
:1011E00000681D49884201D1FFF7A3FF1448006839
:1011F0001949884205D104211848FFF7C3F800288F
:101200000ED10F4800680F49884203D00C4800688F
:1012100088420DD104211148FFF7B4F8002807D106
:101220000F48007800F02EFD05480068034908606B
:101230001CBD00003E0000203000002028000020DF
:101240002C000020651200083F0000203D00002017
:10125000340000206C1E00089D120008000400509D
:101260003C00002010B508480078002805D0074849
:1012700007490860FFF72EFF10BD00F04BF8054846
:101280000549086000BFF7E73F000020151300087C
:1012900028000020651200082C0000201CB5042145
:1012A0001148FFF76FF800281DD110490870104849
:1012B0000068019001A8486000200E4908700B48A2
:1012C0000123322219460090002000F03FFD0A4918
:1012D00008700A480A4908600A480B4908600B4828
:1012E0000B49086000BF1CBD000400503400002002
:1012F000641E00083E0000203C0000207111000820
:10130000280000209D1200082C0000206512000813
:10131000300000201CB504211248FFF733F80028E4
:101320001ED000201049087010480068019001A8E4
:10133000486000200E4908700B48012332221946EC
:101340000090002000F002FD0A4908700A480B498D
:1013500008600B480B4908600B480C49086000BF47
:101360001CBD00000004005034000020681E00086E
:101370003E0000203C0000207111000828000020E1
:10138000151300082C0000209D12000830000020DA
:1013900010B5002823D0124B0022001F196803E06B
:1013A000814203D80A4649680029F9D1002A0AD0A7
:1013B0001368841A9C4204D1006818181060104603
:1013C00002E0506000E01860002907D002680B1AA4
:1013D000934203D10B68D21802604968416010BD86
:1013E0008800002038B504462078002802D0012863
:1013F00010D106E0606800780090684600F00EF8B2
:1014000009E061680A78684602704978417000F026
:101410007BF800E000BF00BF38BD000010B50446F7
:101420002078032806D004280AD0052826D00628CC
:1014300060D141E0202105200007FEF7ACFF5AE013
:101440002E480078032814D12D480078401C2C49E0
:10145000087008460078042803DC20212948FEF79C
:101460009AFF27480078142807DB002024490870D9
:1014700003E020212348FEF78EFF3CE01F48407820
:10148000032814D11E484078401C1D494870084666
:101490004078042803DC40211A48FEF77CFF1848F6
:1014A0004078142807DB00201549487003E04021EC
:1014B0001448FEF770FF1EE010488078032814D10E
:1014C0000F488078401C0E498870084680780428B0
:1014D00003DC80210B48FEF75EFF09488078142862
:1014E00007DB00200649887003E080210548FEF7ED
:1014F00052FF00E000BF00BF10BD0000210000202F
:101500002400002000040050FEB50646307807286D
:1015100002D0082873D144E088480078022803D01C
:1015200086480078032803D18548007800F0AAFB9C
:1015300070788249087008460078002806D1002299
:10154000202105200007FEF730FF29E07B480078C6
:10155000012806D10122202105200007FEF725FFE2
:101560001EE0202105200007FEF715FF64247348C4
:101570000078032801D17D24E4000020714908701F
:1015800071480068019001A848600846002322467F
:1015900001210090084600F0D9FB6949087000BF9E
:1015A000C9E074787078401E684945182878012889
:1015B00005D02878022802D02878032805D1717830
:1015C000491E634A505C00F05DFB2878401C28707F
:1015D0002878052823D100202870012C01D1202251
:1015E00008E0022C01D1402204E0032C01D180222A
:1015F00000E020221146012C02D1564A0AE099E06F
:10160000022C01D1534A05E0032C01D1514A01E0DB
:101610000522120710460022FEF7C7FE89E028784F
:10162000042820D1012C01D1202208E0022C01D174
:10163000402204E0032C01D1802200E02022114648
:10164000012C01D1434A09E0022C01D1414A05E0B5
:10165000032C01D13F4A01E0052212071046012266
:10166000FEF7A3FE65E02878032820D1012C01D1E4
:10167000202208E0022C01D1402204E0032C01D1F9
:10168000802200E020221146012C01D1314A09E0DC
:10169000022C01D12F4A05E0032C01D12D4A01E093
:1016A0000522120710460022FEF77FFE1EE0012CE5
:1016B00001D1202208E0022C01D1402204E0032CB9
:1016C00001D1802200E020221146012C01D1214AC3
:1016D00009E0022C01D11F4A05E0032C01D11D4A6B
:1016E00001E0052212071046FEF755FE6427287810
:1016F000022802D17D27FF0003E02878032800D1CB
:10170000C8270021601E144A115400200D4908709A
:10171000E01CC0B2019001A84860084600233A4688
:1017200001210090084600F011FB611E084A505448
:1017300000BF00E000BF00BFFEBD00002000002091
:101740001F00002014000020581E00082100002067
:101750001C000020000400502400002000B587B0C9
:10176000142102A8FEF7F3FC00BF2A48C06A022138
:1017700008432849C8620846C06A0221084001900F
:1017800000BF00BF00BF2348C06A012108432149B0
:10179000C8620846C06AC007C00F019000BF00BF02
:1017A000202002900120039000200490059002A9BF
:1017B00005200007FEF7EAFC2020029002A9164847
:1017C000FEF7E4FC4020029002A91348FEF7DEFC7D
:1017D0008020029002A91048FEF7D8FC00222021A8
:1017E00005200007FEF7E1FD002220210A48FEF750
:1017F000DCFD002240210848FEF7D7FD00228021B1
:101800000548FEF7D2FD01220021022000F00CF96C
:1018100007B000BD001002400004005070470000F7
:10182000FEF7DCFDFFF77CFB00F014F900F074F824
:1018300010E000F02DF908480088401C0649088097
:10184000084600880549884204D1002002490880E2
:1018500000F03CF8EDE700000000002050C300005D
:10186000F0B50B30C108C900144F0026144A0FE030
:1018700003688B420BD38B4205D95C1A4318456829
:1018800030C3083B00E04368136002C004E0021D5F
:1018900010680028ECD13046002803D138680028B1
:1018A00001D00020F0BD064A06481060064A121A10
:1018B000D208D20044C001203860D7E78C00002055
:1018C00088000020A4000020A002002010B50248DB
:1018D0000068804710BD00008400002070B50446F9
:1018E0000D4606E020680078A84200D170BD20684F
:1018F000041D20680028F5D1082000F00FF92060B1
:101900002068002800D1F1E72068057000202168D8
:10191000486000BFEAE7000010B5002406E0182187
:101920006143044A50588047601C84B2022CF6DBA5
:1019300010BD000044000020FEB505460C461646CA
:101940002068007869460870206840680190276820
:101950002068806820602068002800D130600C2159
:10196000384600F0E1F80199009869602860FEBDF2
:10197000F8B506460F4615460C2000F0CFF8044691
:10198000002C00D1F8BD29788900114A505800F088
:10199000C5F860606068002800D1F3E7287880000F
:1019A0000B4B1A58696860680090FEF7B7FB2878FF
:1019B00020700020A060306800F062F8002801D09C
:1019C000346001E0386884603C6000BFDAE7000002
:1019D000701E000870B505460C4618226243064B7F
:1019E000D2181146143118226243D2181046103012
:1019F0002A46FFF7BDFF70BD4400002070B50546C4
:101A00000E46032D00DB70BDA80006490C5804E00B
:101A100021783046FFF7DEFF6468002CF8D100BF64
:101A2000F1E700009000002070B504460E46154610
:101A3000002D06D0A100064A88183146FFF74EFF58
:101A400005E0A100024A8818314600F076F870BD22
:101A50009000002010B500200BE000221821414327
:101A6000064BC9180A6118214143C9184A61411C33
:101A700088B20228F1DB00F07EF810BD440000209F
:101A80000146002901D1012070470020FCE7000039
:101A90001CB500F071F8002438E0182060431D499F
:101AA0004018007B002800D12EE01DE01820604384
:101AB000184BC0180246143218206043C018014663
:101AC00010316846FFF738FF18206043114A80182C
:101AD0008168684688476A46127892000E4B99588A
:101AE000019800F021F800BF18216143094A8918C4
:101AF0000869FFF7C5FF0028D8D018216143054ABF
:101B000089184868804700BF601C84B2022CC4DB7F
:101B10001CBD000044000020701E000810B50446E3
:101B20002046FFF79DFE10BD70B505460C46002C03
:101B300002D02846FFF72CFC70BD70B504460D4658
:101B40002068002800D170BD07E020684068206050
:101B50002068002800D1F6E7264620680078A842D1
:101B6000F3D1206840683168486008212068FFF799
:101B7000DBFF00BFE7E7704770B51F48046837E038
:101B8000207B0007C00F002800D131E0207B082116
:101B900088432073207B4007800F00280FD0012846
:101BA00007D002280ED1207C21461431FFF726FFF2
:101BB00008E0217C20461430FFF70CFF02E020698A
:101BC000804700BF00BF2546E469287BC007C00FDF
:101BD000002802D0012808D103E0287800F052F84C
:101BE00004E006480068686000E000BF00BF00BF76
:101BF000002CC5D170BD0000740000207C000020C6
:101C000070B505460120164908702020FFF786FFB1
:101C10000446002C00D170BD1C2229462046FEF748
:101C20007DFA217D89000F4A5058FFF777FFA061A8
:101C3000237D9B000B4EF258A969A069FEF76EFA4E
:101C400009480068E0610848046000200449087001
:101C500006480078002801D000F0CEF800BFDAE78F
:101C600078000020701E0008740000207A00002018
:101C700002468A4201D8881A70470020C043801A61
:101C80004018F9E710B5044632462946204600F0D0
:101C900097F8002803D03146284600F023F810BDFD
:101CA00010B50F48047810E00D480078401C0C492E
:101CB000087008460078002801D101200870084803
:101CC0000078A04201D1002010BD2A4629460448D0
:101CD000007800F075F80028E6D101480078F3E7B5
:101CE0008000002070B504460D460120134908709D
:101CF000134920680968884204D12068C0691049E6
:101D0000086003E02068C0692968C8612268127D04
:101D100092000C4B995822689069FFF705FF20212B
:101D20002068FFF701FF002004490870064800788A
:101D3000002801D000F060F870BD0000790000209C
:101D400074000020701E00087A000020FFB587B0E4
:101D500004460D461646109F002D04D0FFF7A0FF45
:101D60006946087002E00020694608706846007BFA
:101D700006218843811C684601730A98C1B26846EF
:101D80000174029679680691397801750B480068EC
:101D900001906846007B082188430146684601732C
:101DA000007B41084900E007C00F0143684601730A
:101DB000FFF726FF684600780BB0F0BD7C000020DE
:101DC00010B504460B460B4900220BE0086800786A
:101DD000A04203D108681860012010BD0A460868B7
:101DE00001461C3108680028F0D11060186000BF5F
:101DF000F3E700007400002010B500200A490870C5
:101E00000A4804680DE00A4960680968FFF730FF76
:101E1000A168884204D8207B0821884308302073B9
:101E2000E469002CEFD110BD7A000020740000207E
:101E30007C000020000000000000000001020304FC
:101E40000607080900000000010203040304060855
:101E50000C101820300000000300000008000000F3
:101E60000700000009000000090000000A0000004F
:101E70000100000002000000981E00080000002081
:101E800090000000FC0F0008281F000890000020B0
:101E9000100600000C100008000000000000000008
:101EA000040000000100000000002000000000000D
:101EB0000000000000000000000000000000000022
:101EC0000000000000000000000000000000000012
:101ED0000000000000000000000000005D17000886
:101EE0001D180008E51300080100000000000000B4
:101EF0000000000081100008211100081B100008DC
:101F000001000000000000000000000000000000D0
:101F100000000000000000000100000000000000C0
:081F20000000000000000000B9
:04000005080000C12E
:00000001FF
