:020000040800F2
:10000000D0060020D50000083F1200083B1200086F
:1000100000000000000000000000000000000000E0
:10002000000000000000000000000000BB120008FB
:100030000000000000000000B9120008BD12000816
:10004000E7000008E7000008E7000008E7000008F4
:10005000E7000008E7000008E7000008E7000008E4
:10006000E7000008E7000008E7000008E7000008D4
:10007000E7000008E7000008E7000008A1130008F7
:10008000E7000008E7000008E700000800000000A3
:10009000E7000008E7000008E7000008E7000008A4
:1000A000E7000008E7000008E7000008E700000894
:1000B000E7000008E700000800000000E700000873
:1000C0000348854600F04EF8004800478D1C0008A4
:1000D000D00600200448804704480047FEE7FEE7BA
:1000E000FEE7FEE7FEE7FEE739130008C10000085F
:1000F00030B50B46014600202022012409E00D46C0
:10010000D5409D4205D31D469540491B2546954047
:1001100040191546521E002DF1DC30BD03460B433D
:100120009B0703D009E008C9121F08C0042AFAD2AD
:1001300003E00B780370401C491C521EF9D2704733
:10014000D2B201E00270401C491EFBD2704700226F
:10015000F6E710B513460A4604461946FFF7F0FFC6
:10016000204610BD064C0125064E05E0E36807CC8D
:100170002B430C3C98471034B442F7D3FFF7A4FF4D
:10018000B8230008D82300087047000070B5034664
:10019000002200240020DFE0012696400D68354053
:1001A0002C46002C77D04D68012D08D04D68022DCB
:1001B00005D04D68112D02D04D68122D18D19868C8
:1001C00056000325B5400646AE4330465600CD687E
:1001D000B540284398605868012595400646AE43CF
:1001E000304610264D6835402D099540284358600B
:1001F000D86856000325B5400646AE433046560043
:100200008D68B5402843D8604D68022D02D04D68F6
:10021000122D15D1D508AE001D462035A859550719
:10022000EE0E0F25B5400646AE4330465607F60E95
:100230000D69B5402843D508AD001E4620367051E3
:10024000186856000325B5400646AE4330460D7982
:10025000AD07AD0F5600B54028431860012636079C
:100260004D683540B54276D13E4D6D6B0126354324
:100270003C4E75633C4D9608B600A85995072E0F65
:100280000F25B5400646AE43304605252D07AB4247
:1002900002D100251AE05EE0344DAB4201D10125C8
:1002A00014E0334DAB4201D102250FE0314DAB429A
:1002B00001D103250AE0304DAB4201D1042505E010
:1002C0002E4DAB4201D1052500E006259607360FDD
:1002D000B5402843244D9608B600A851284D2868FB
:1002E0000546A5432846012636044D683540B542EB
:1002F00002D1054625432846214D286068680546F9
:10030000A5432846012676044D683540B54202D102
:100310000546254328461A4D6860A8680546A5434A
:100320002846012636054D683540B54202D10546BE
:1003300025432846124DA860E8680546A54328468F
:10034000012676054D683540B54202D10546254364
:1003500028460B4DE860521C0D68D540002D00D09A
:100360001AE770BD00100240080001400004005070
:1003700000080050000C005000100050001C0050FD
:1003800000040140024613690B40002B01D00120FC
:1003900000E00020704710B5426913460B401B0473
:1003A0000C4694432343836110BD002A01D0816130
:1003B00000E081627047000001480068704700005B
:1003C00000000020034800680349097840180149EB
:1003D00008607047000000200800002010B50024CD
:1003E000084800684021084306490860002000F0E2
:1003F0000BF8002801D0012401E000F02FF820467E
:1004000010BD00000020024070B50446104801787D
:100410007D20C000FFF76CFE064631460D4800689F
:10042000FFF766FE054600F025FD002801D00120FB
:1004300070BD042C07D200222146501E00F02AF87D
:100440000548046001E00120F2E70020F0E7000029
:10045000080000200C000020040000200648406B2B
:1004600001210843044948630846806B0904084396
:1004700001498863704700000010024000BFC206B7
:10048000D20E01219140024A116000BF7047000066
:1004900000E100E070B504460D46164629462046A8
:1004A00000F0CEFE70BD0000F8B504460D46002CED
:1004B00001D10120F8BD79480068C007C00FA842EB
:1004C0000ED276480068400840002843734908600F
:1004D00008460068C007C00FA84201D00120E9E724
:1004E000022120680840022807D16D48C068F02129
:1004F0008843A16808436A49C8602078C007C00FD4
:1005000000284CD06068022809D1654800680121A4
:1005100049040840400C002824D10120CAE7606843
:10052000032809D15E480068012149060840400EB1
:10053000002817D10120BDE76068012808D158487C
:10054000006804210840800800280BD10120B1E791
:1005500053480068012149020840400A002801D19F
:100560000120A7E74E48C068800880006168084302
:100570004B49C860FFF720FF0646606802280FD18C
:1005800007E0FFF719FF801B4649884201D9032085
:1005900090E74348C0680C2108400828F1D134E0B6
:1005A000606803280FD107E0FFF706FF801B3D4975
:1005B000884201D903207DE73948C0680C210840F2
:1005C0000C28F1D121E0606801280FD107E0FFF786
:1005D000F3FE801B3349884201D903206AE7304883
:1005E000C0680C2108400428F1D10EE007E0FFF7B5
:1005F000E3FE801B2B49884201D903205AE7284893
:10060000C0680C2108400028F1D124480068C007C8
:10061000C00FA8420ED92148006840084000284376
:100620001E49086008460068C007C00FA84201D0F4
:1006300001203FE7042120680840042808D1184819
:10064000C068072109028843E16808431449C8606B
:10065000082120680840082809D11148C0680721EE
:10066000C90288432169C90008430D49C86000F0E8
:100670001FF80B49C968F022114009090A4A515C68
:10068000C8400A4908600020FFF7BEFE0746002F59
:1006900001D038460EE700200CE7000000200240A1
:1006A00000100240881300007E2300080C00002088
:1006B000FEB52E48C7680C203840002845D00428D5
:1006C00004D008280CD00C283ED10BE02748006845
:1006D00010210840002801D0254C00E0254C41E0C5
:1006E000254C3FE00F2080043840800C23490E5CED
:1006F000032080053840800D401C01901B48C068D5
:10070000012109040840002807D01B49714308460D
:100710000199FFF7EDFC054614E01448006810212C
:100720000840002807D01249714308460199FFF795
:10073000DFFC054606E00F49714308460199FFF7C3
:10074000D7FC05462C460DE000BF0848406807214D
:1007500049030840400B00900098401C0121814053
:10076000CC0300BF00BF2046FEBD000000100240C9
:1007700000093D000024F40000127A0096230008CE
:10078000FEB50446002C01D10120FEBDFA48C76821
:100790000C210F40C0680121090408400190207815
:1007A000C007C00F002872D0082F04D00C2F0FD123
:1007B000019888420CD1F0480068012149040840A2
:1007C000400C002863D06068002860D10120DCE77D
:1007D00000BF012109046068884205D1E64800682D
:1007E0000843E549086027E005210904606888425C
:1007F0000ED1E1480068012189040843DE49086000
:1008000008460068012109040843DB49086013E039
:10081000D9480068012109048843D749086008467F
:100820000068012109040840009000BFD248006818
:1008300089008843D049086000BF6068002813D051
:10084000FFF7BAFD054606E0FFF7B6FD401B64283A
:1008500001D9032099E7C8480068012149040840EC
:10086000400C0028F0D012E0FFF7A6FD054606E098
:10087000FFF7A2FD401B642801D9032085E7BE488D
:100880000068012149040840400C0028F0D10221F1
:100890002068084002286BD1E668202030400028FC
:1008A00009D0B548006820210843B34908602021D9
:1008B000304688430646042F04D00C2F33D10198CC
:1008C000002830D1AC480068042108408008002886
:1008D00003D0002E01D1012057E7A74840681F210F
:1008E00009028843216909020843A3494860084670
:1008F00000680921884330439F490860FFF7D8FE0C
:100900009D49C968F022114009099C4A515CC840C0
:100910009B4908600020FFF777FD029002980028AD
:100920003FD0029831E7002E23D093480068092178
:100930008843304390490860FFF73EFD054606E0D6
:10094000FFF73AFD401B022801D903201DE78A4822
:1009500000680421084080080028F1D086484068DB
:100960001F2109028843216909020843824948601E
:1009700017E081480068400840007F490860FFF7A1
:100980001BFD054606E0FFF717FD401B022801D9B5
:100990000320FAE67848006804210840800800280F
:1009A000F1D1102120680840102867D1002F36D1DE
:1009B0007148006849010840400A002804D0E069F5
:1009C000002801D10120E0E66B4840680721490377
:1009D0008843616A084368494860084640680002E5
:1009E000000A218C0906084363494860606A400B8D
:1009F000401C01218140C8035F49C968F0221140B1
:100A000009095E4A515CC8405D4908600020FFF753
:100A1000FBFC0290029800284BD00298B5E6E069F2
:100A200000282CD054480068FF2101310843524966
:100A30000860FFF7C1FC054606E0FFF7BDFC401B60
:100A4000022801D90320A0E64B4800680121490291
:100A50000840400A0028F0D0474840680721490371
:100A60008843616A08434449486008464068000278
:100A7000000A218C090608433F49486019E03E48B6
:100A80000068FF21013188433B490860FFF794FC6F
:100A9000054606E0FFF790FC401B022801D9032021
:100AA00073E635480068012149020840400A0028E1
:100AB000F0D1082120680840082839D16069002851
:100AC0001BD02D4840300069012108432A4940319C
:100AD0000861FFF771FC054606E0FFF76DFC401B5F
:100AE000022801D9032050E6234840300069022142
:100AF000084040080028F0D01AE01F484030006944
:100B0000400840001C4940310861FFF755FC05468C
:100B100006E0FFF751FC401B022801D9032034E610
:100B20001548403000690221084040080028F0D1F3
:100B3000042120680840042879D1002000900E4844
:100B4000806B89060840002806D10B48806B08435B
:100B500009498863012000900A480068FF2101319B
:100B6000084000281ED1074800680843054908606E
:100B7000FFF722FC05460EE0001002407E2300082D
:100B80000C00002000700040FFF716FC401B64289A
:100B900001D90320F9E5B3480068FF21013108407D
:100BA0000028F1D000BFFF210131A068884205D1A3
:100BB000AD4800690843AC49086130E0A0680028EE
:100BC0000DD1A9480069FF2101318843A649086178
:100BD0000846006909158843A34908611FE00521FB
:100BE0000902A06888420DD19F480069012189024D
:100BF00008439D49086108460069891508439A49D8
:100C000008610CE098480069FF210131884396494A
:100C1000086108460069091588439349086100BFC7
:100C2000A068002815D0FFF7C7FB054608E031E0B3
:100C3000FFF7C2FB401B8D49884201D90320A4E580
:100C400089480069012149020840400A0028EFD084
:100C500013E0FFF7B1FB054607E0FFF7ADFB401BD4
:100C60008249884201D903208FE57F48006901212C
:100C700049020840400A0028EFD10098012808D115
:100C800079484038806B012109078843764940390B
:100C9000886300BF202120680840202852D1A06925
:100CA00000282BD000BF70484038806801210843DD
:100CB0006D49403988600846406B012108436A4904
:100CC000403948636A48006A01214903084368497A
:100CD000086200BFFFF770FB054606E0FFF76CFBFC
:100CE000401B022801D903204FE55F484038806847
:100CF0000221084040080028F0D023E000BF5A48F5
:100D0000403880684008400057494039886058485A
:100D1000006A0121490388435549086200BFFFF773
:100D20004BFB054606E0FFF747FB401B022801D9B5
:100D300003202AE54C4840388068022108404008DA
:100D40000028F0D1A06A00284CD00C2F69D0A06AEE
:100D5000022848D1444840380068012109068843E8
:100D6000414940390860FFF727FB054606E0FFF7D9
:100D700023FB401B022801D9032006E53A484038EE
:100D80000068012149060840400E0028EFD1216B80
:100D9000E06A0843616B084333494039C968FD2262
:100DA00012049143084330494039C860084600683E
:100DB0000121090608432C4940390860FFF7FCFA75
:100DC000054606E0FFF7F8FA401B022801D9032088
:100DD000DBE4254840380068012149060840400E00
:100DE0000028EFD03CE02048403800680121090687
:100DF00088431D4940390860FFF7DEFA054606E0E2
:100E0000FFF7DAFA401B022801D90320BDE4164897
:100E100040380068012149060840400E0028EFD103
:100E20001EE0A06A012800D1AFE40F484038C06836
:100E300001900121090401980840E16A88420DD11E
:100E40000F21890401980840216B884206D10321B3
:100E5000890501980840616B884201D0012094E423
:100E6000002092E40070004040100240881300000F
:100E70000000014070B504462546681E09498842B5
:100E800001D901200CE0681E074948610321081FB1
:100E900000F0D6F90020044988610720086100208D
:100EA00070BD0000FFFFFF0000E000E030B502462B
:100EB00000BF3820805C012801D1022030BD01250F
:100EC0003820855400BF02253920855410684368B6
:100ED0001068846870251846A843034608680343D1
:100EE00080252046A84304464868044310684360B0
:100EF0001068846001253920855400BF0025382002
:100F0000855400BF0020D9E710B50446002C01D15C
:100F1000012010BD3920005D002805D100213820B6
:100F20000155204600F00CF8022139200155211D01
:100F3000206800F03DFA0121392001550020E8E742
:100F400010B5044601218907206888420DD1074861
:100F5000806B0121084305498863002211460F2058
:100F6000FFF798FA0F20FFF789FA10BD0010024032
:100F700001460868C068012318430B68D8600868F8
:100F800080684207520F062A05D0086800680123CE
:100F900018430B68186000207047F8B504460D46EA
:100FA00000BF3820005D012801D10220F8BD0121D9
:100FB0003820015500BF022139200155206886687C
:100FC0007721304688430646FF2109023046884390
:100FD0000646206886602868502834D00CDC20281B
:100FE00051D004DC00284CD0102852D14AE03028DF
:100FF0004AD040284DD13AE060282ED0702807D042
:1010000001210903401A02D0401A42D10DE041E00B
:10101000EB686A68A968206800F008FA20688668AA
:10102000772006432068866034E0EB686A68A96828
:10103000206800F0FBF920688068012189030843DB
:101040002168886026E0EA686968206800F008FA8C
:101050005021206800F0F8F91CE0EA68696820680F
:1010600000F017FA6021206800F0EEF912E0EA685B
:101070006968206800F0F4F94021206800F0E4F984
:1010800008E000BF00BF00BF2968206800F0DCF95D
:1010900000E000BF00BF01213920015500BF002141
:1010A0003820015500BF002080E7704710B5044686
:1010B0002068006902210840400800281CD02068F0
:1010C000C06808404008002816D0481F2168086101
:1010D00001202076206880698007800F002803D0D7
:1010E0002046FFF7E2FF05E0204600F09DF820468D
:1010F00000F09BF800202076206800690421084059
:10110000800800281DD02068C0680840800800289A
:1011100017D0C843216808610220207620688069C2
:10112000032109020840002803D02046FFF7BDFF35
:1011300005E0204600F078F8204600F076F8002020
:1011400020762068006908210840C00800281CD0CB
:101150002068C0680840C008002816D0C84321682D
:101160000861042020762068C0698007800F00286D
:1011700003D02046FFF799FF05E0204600F054F821
:10118000204600F052F800202076206800691021E7
:101190000840000900281DD02068C06808400009E8
:1011A000002817D0C84321680861082020762068ED
:1011B000C069032109020840002803D02046FFF738
:1011C00074FF05E0204600F02FF8204600F02DF8CF
:1011D0000020207620680069C007C00F0121484028
:1011E000484000280CD02068C0680840484048406B
:1011F000002805D0C81E21680861204600F016F8B6
:101200002068006940210840800900280BD0206830
:10121000C06808408009002805D0C84321680861DB
:10122000204600F009F810BD7047704710B504461D
:10123000012000F071FF10BD704700BFFEE770474E
:1012400010B5002819DA1A4A03071B0F083B9B0840
:101250009B00D2588307DC0EFF23A3409A438B07E1
:101260001B0E8407E40EA3401A43114B0407240FFE
:10127000083CA408A4001A5118E00E4A03231B02DC
:10128000D21883089B00D2588307DC0EFF23A340AB
:101290009A438B071B0E8407E40EA3401A43054BA9
:1012A000032424021B198408A4001A5110BD000055
:1012B0001CED00E000E100E07047704710B5FFF75B
:1012C00081F810BD00B593B0382105A8FEF73FFFA7
:1012D00014216846FEF73BFF164800680321C90247
:1012E00088430121C9024018124908601020059066
:1012F00001200C9000200D90052040030E9000204E
:101300000F9005A8FFF73CFA002801D0FEF73CFF3C
:101310000F20009000200190029003900490002183
:101320006846FFF7C1F8002801D0FEF72DFF13B083
:1013300000BD00000070004015480068FF21013129
:101340000843134908600846C0681249084010491C
:10135000C86008460068104908400D490860084602
:1013600080684008400088600846006801218904C0
:101370008843074908600846C068FD21090488437E
:101380000349C86000200861C803044988607047A9
:10139000001002400C40FF88F6FFF6FE00ED00E072
:1013A00010B50248FFF782FE10BD00008800002043
:1013B00010B5026801239B07984208D0184B984249
:1013C00005D0184B984202D0174B984205D1702493
:1013D0001346A3431A464B681A4301239B079842BE
:1013E00008D00F4B984205D00E4B984202D00E4BBE
:1013F000984206D1032424021346A3431A46CB681D
:101400001A4380241346A3430C6923431A460260FF
:101410008B68C3620B6883620123436110BD0000C7
:1014200000040040000801400014014070B50C4663
:101430008168FF2636020D46B54329461D02154335
:1014400025432943816070BD10B50A468168702428
:101450000B46A3431946072313431943816010BD6C
:1014600070B50B461446026A056A6D086D00056288
:101470008169F0260D46B5432946250129430A26F0
:101480001546B5432A4615461D432A468161026228
:1014900070BD70B50B461446056A1026B54305624B
:1014A0008169026A0F2636030D46B5432946250396
:1014B0002943A0261546B5432A461D012A438161CA
:1014C000026270BD02E008C8121F08C1002AFAD1EA
:1014D00070477047002001E001C1121F002AFBD1B4
:1014E0007047000070B506460D46B0000F4944181D
:1014F00006E020680078A84200D170BD2068041D75
:1015000020680028F5D1082000F0CCFB206020687E
:10151000002803D1022000F0B3F9EEE7206805703F
:1015200000202168486000BFE7E700003800002085
:1015300008B50F480078032803D100200C49087033
:1015400004E00B480078401C094908700120094953
:10155000087009480068009005480078694648709E
:10156000684604494860002000F072FC08BD000095
:101570007E0000206C000020A823000870470000B7
:1015800008B50A48007800280FD0012008490870E3
:101590000020009005480078694648706846044974
:1015A0004860002000F054FC00BF08BD7E00002011
:1015B0006C00002008B52E480078002835D02D4852
:1015C00000682D4908602D4800682D4988420AD1DD
:1015D0002C480078002803D12B48006800F0A8FBB5
:1015E000FFF7CEFF1AE0234800682549884215D14D
:1015F0000020264908702648006800906846486028
:10160000002020490870214B0122AF21890000F001
:101610004BFC1D490860FFF7B1FF00BF154800688B
:101620001C49884201D100F0CBF8144800681949E0
:10163000884205D104211848FEF7A4FE00280ED1E7
:101640000E4800680E49884203D00C480068884262
:101650000DD104211048FEF795FE002807D10F4850
:10166000006800F065FB054800680349086008BD94
:101670007C00002068000020600000206400002042
:10168000A11600087D000020780000206C000020DA
:10169000B4230008D916000800040050740000208C
:1016A00010B508480078002805D0074807490860A9
:1016B000FFF73EFF10BD00F049F8054805490860F6
:1016C00000BFF7E77D0000204D17000860000020F4
:1016D000A11600086400002008B504211048FEF798
:1016E00051FE00281AD10F4908700F480068009079
:1016F0006846486000200D4908700A4B01223221DB
:1017000000F0D2FB0A4908600A480B4908600B4800
:101710000B4908600B480C49086000BF08BD000079
:10172000000400506C000020AC2300087C00002066
:1017300074000020B515000860000020D9160008CC
:1017400064000020A11600086800002008B50421EC
:101750001048FEF717FE00281BD000200E49087025
:101760000E48006800906846486000200C490870E8
:10177000094B0122322100F097FB0A4908600A4810
:101780000A4908600A480B4908600B480B49086081
:1017900000BF08BD000400506C000020B02300080A
:1017A0007C00002074000020B515000860000020B7
:1017B0004D17000864000020D916000868000020BA
:1017C00070470000F8B50646344631E0607F0028D7
:1017D00001D1246A2CE0184960680968884207D959
:1017E0000021C9436068081A13490968451803E0D5
:1017F0001149606809680D1AA068A84216D8607B74
:101800004007400F00280FD120698047207B012826
:1018100003D109480068606005E02768246A3846FB
:1018200000F01AFC04E000BF01202077246A00BF0A
:10183000002CCBD1F8BD00003C000020F8B50646D6
:101840000F46B0000D4944182068002800D1F8BDAB
:1018500007E025462068406820602068002800D105
:10186000F5E720680078B842F3D12068406829681D
:101870004860206800F006F800BFE8E73800002064
:101880007047000010B5002823D0124B0022001F23
:10189000196803E0814203D80A4649680029F9D152
:1018A000002A0AD01368841A9C4204D100681818D0
:1018B0001060104602E0506000E01860002907D078
:1018C00002680B1A934203D10B68D2180260496870
:1018D000416010BD8000002010B504462078042827
:1018E00006D005280AD0062826D0072860D141E076
:1018F000202105200007FEF74EFD5AE02E48007813
:10190000032814D12D480078401C2C490870084643
:101910000078042803DC20212948FEF73CFD2748F5
:101920000078142807DB00202449087003E02021F8
:101930002348FEF730FD3CE01F484078032814D1CF
:101940001E484078401C1D494870084640780428CD
:1019500003DC40211A48FEF71EFD18484078142881
:1019600007DB00201549487003E040211448FEF7CA
:1019700012FD1EE010488078032814D10F488078AB
:10198000401C0E49887008468078042803DC8021BA
:101990000B48FEF700FD09488078142807DB00207B
:1019A0000649887003E080210548FEF7F4FC00E05A
:1019B00000BF00BF10BD0000590000205C000020E7
:1019C000000400500178022902D0032908D103E065
:1019D0000121054A117004E00121044A117000E060
:1019E00000BF00BF704700007C0000207D00002089
:1019F0000246142050430A4BC0180069002800D149
:101A0000704714205043064BC018006900780870D6
:101A100014205043C0180069406848600120EFE777
:101A200010000020F8B506463078002844D0012880
:101A300071D187480078022803D0854800780328B0
:101A400003D18448006800F073F970788049087009
:101A500008460078002806D1002220210520000732
:101A6000FEF7A3FC27E07A480078012806D101227E
:101A7000202105200007FEF798FC1CE0202105200E
:101A80000007FEF788FC642471480078032801D120
:101A90007D24E400002070490870704800680090C0
:101AA000684648600B4600222146012000F0FCF900
:101AB0006849086000BFC9E074787078401E6849C2
:101AC00045182878012805D02878022802D02878DF
:101AD000032806D17178491E8900624A505800F0E7
:101AE00027F92878401C28702878052823D1002061
:101AF0002870012C01D1202208E0022C01D14022C3
:101B000004E0032C01D1802200E020221146012CA8
:101B100002D1554A0AE098E0022C01D1524A05E070
:101B2000032C01D1504A01E0052212071046002281
:101B3000FEF73BFC88E02878042820D1012C01D155
:101B4000202208E0022C01D1402204E0032C01D124
:101B5000802200E020221146012C01D1424A09E0F6
:101B6000022C01D1404A05E0032C01D13E4A01E09C
:101B70000522120710460122FEF717FC64E02878C0
:101B8000032820D1012C01D1202208E0022C01D110
:101B9000402204E0032C01D1802200E020221146E3
:101BA000012C01D1304A09E0022C01D12E4A05E076
:101BB000032C01D12C4A01E0052212071046002215
:101BC000FEF7F3FB1EE0012C01D1202208E0022CDD
:101BD00001D1402204E0032C01D1802200E0202228
:101BE0001146012C01D1204A09E0022C01D11E4AE4
:101BF00005E0032C01D11C4A01E005221207104622
:101C0000FEF7C9FB64272878022802D17D27FF0050
:101C100003E02878032800D1C8270021601E134A5A
:101C2000115400200C490870201DC0B20090684675
:101C300048600B4600223946012000F035F9611E4C
:101C40008900084A505000BF00E000BF00BFF8BD47
:101C500058000020540000204C000020A42300085D
:101C600059000020C4000020000400505C00002047
:101C70007047000001480068704700003C000020E9
:101C8000014800687047000040000020FEF7A6FBF6
:101C9000FFF718FB00F068F800F03AF801E000F0F8
:101CA00067F8FCE7F0B50B30C108C900144F0026F7
:101CB000144A0FE003688B420BD38B4205D95C1AA0
:101CC0004318456830C3083B00E04368136002C016
:101CD00004E0021D10680028ECD13046002803D132
:101CE0003868002801D00020F0BD064A0648106080
:101CF000064A121AD208D20044C001203860D7E741
:101D00008400002080000020D4000020D0020020A9
:101D100010B5002406E014216143044A505880475E
:101D2000601CC4B2022CF6DB10BD000010000020C5
:101D300010B50446204600F08FF910BD70B5054679
:101D40000C46022C00DB70BD14206043054940188E
:101D5000007B002800D1F6E72946204600F008FA6B
:101D600000BFF0E71000002010B500F0D7F810BD5C
:101D7000FEB5FFF785FF04462BE0207F002827D023
:101D8000607B4007400F012811D1217C2046143090
:101D9000FFF7D4FF207B012805D100202077FFF733
:101DA00069FF606014E0206800F056F910E0207CC4
:101DB0002146143100F04CF8207B012805D1002089
:101DC0002077FFF757FF606002E0206800F044F9D9
:101DD000246A002CD1D1002534E0142068431B492B
:101DE0004018007B002800D1FEBD1DE01420684390
:101DF000164A80188168684688470198FFF742FDB7
:101E000014206843114940180646103614206843D0
:101E10004018006987683068FFF734FD1420684374
:101E20000A494018076100BF69462846FFF7E0FDF0
:101E30000028DBD114216943044A89184868804787
:101E4000681CC5B2022DC8DB00BFCDE71000002022
:101E500070B505460E46012D00DB70BDA800064991
:101E60000C5804E021783046FFF768FF6468002CC6
:101E7000F8D100BFF1E700003800002070B5064639
:101E80000C461546012E01DA022C00DB70BD002D38
:101E900004D021463046FFF725FB03E021463046BB
:101EA000FFF7CCFC00BFF1E7FFB583B006460F4655
:101EB0001D4602AC287801900121204600F06EF802
:101EC000002801D107B0F0BD05982168087420688A
:101ED00087600198216808752168097D0E4A505C69
:101EE000FFF7E0FE0146206881610B4B01981A5C08
:101EF0006968206880690090FEF710F90020216869
:101F000008772068067301202168487321684877A4
:101F100020680068D6E700009F23000800B587B05E
:101F200000200390049005900690019002900120FB
:101F30008007194908600020486000211648816028
:101F400083210901C1600021016180214161FEF707
:101F5000DBFF002802D00520FFF792FC01200003E0
:101F6000039003A90C48FFF718F8002802D00520B9
:101F7000FFF786FC00200190029001A90648FEF7B9
:101F800095FF002802D00520FFF77AFC0248FEF7F3
:101F9000EFFF07B000BD00008800002070B50546C7
:101FA0000E46012027490870274C002E00D1274CEF
:101FB00002E020680446203420680028F9D124205B
:101FC000FFF770FE206000202168086221684877D2
:101FD000206800280DD11B4908701D480078002892
:101FE00002D0002000F098F80320FFF749FC002001
:101FF00070BD0120FFF756FE216808602068006868
:1020000000280DD10F49087011480078002802D02F
:10201000002000F081F80420FFF732FC0020E7E701
:102020000C48006821684860206828600020054945
:10203000087007480078002802D0002000F06CF8F3
:102040000120D5E74A000020400000204400002085
:10205000490000203C000020F8B50546002D00D1C5
:10206000F8BD012028490870284C012607E02068A7
:10207000044620342068002801D1002603E02068AF
:102080000068A842F3D100BF002E15D1204C0FE00C
:102090002068044620342068002809D11A490870B5
:1020A0001C480078002802D0002000F035F8D7E75F
:1020B00020680068A842EBD12068074620372068D6
:1020C000407B4007400F012805D02068407B400737
:1020D000400F022803D121688869FFF7D3FB2168EC
:1020E0000868FFF7CFFB2068FFF7CCFB386820605B
:1020F00000200549087007480078002802D0002019
:1021000000F00AF800BFABE74800002040000020C4
:10211000440000204900002010B504460E48006825
:1021200000190D4908600D480078002803D10C48BB
:102130000078002803D001200A49087010BD002053
:102140000849087008480068FFF73CFB074800682A
:10215000FFF738FB00BFF1E73C0000204A000020F9
:1021600048000020490000204400002040000020DA
:10217000F8B506460D46142070431B494018044626
:10218000103402E020680446083420680028F9D1A1
:102190000C20FFF787FD20602068002802D1FFF7A0
:1021A0006FFBF8BD002021688860287821680870DE
:1021B00029780E4A505CFFF775FD21684860206859
:1021C000002806D12068FFF75DFB0120FFF758FBD0
:1021D000E7E72B78054FFA5C696823685868FDF7D4
:1021E0009DFF00BFDDE70000100000209F230008D6
:1021F00038B504462078002802D0012810D106E026
:102200006068007800906846FFF7DCFB08E06168D2
:102210000A786846027049784170FFF729FD00BFCF
:1022200000BF38BD00B587B0142102A8FDF78FFFAD
:1022300000BF0D48C06A022108430B49C862084626
:10224000C06A02210840019000BF00BF0420029034
:1022500000200390049002A90448FDF797FF04486A
:102260000449086007B000BD00100240000400509F
:10227000D91600086000002010B5024800688047A9
:1022800010BD00006000002038B50446207800280A
:1022900002D0012810D106E06068007800906846FE
:1022A000FFF71AFB08E061680A786846027049780F
:1022B0004170FFF7B7FB00BF00BF38BD00B587B066
:1022C000142102A8FDF743FF00BF2A48C06A02217B
:1022D00008432849C8620846C06A022108400190A4
:1022E00000BF00BF00BF2348C06A01210843214945
:1022F000C8620846C06AC007C00F019000BF00BF97
:10230000202002900120039000200490059002A953
:1023100005200007FDF73AFF2020029002A9164889
:10232000FDF734FF4020029002A91348FDF72EFF6D
:102330008020029002A91048FDF728FF00222021EA
:1023400005200007FEF731F8002220210A48FEF799
:102350002CF8002240210848FEF727F800228021AF
:102360000548FEF722F8012200210846FFF786FD06
:1023700007B000BD0010024000040050704700008C
:102380000000000000000102030406070809000025
:10239000000001020304030406080C101820300199
:1023A0000200000004000000010000000200000024
:1023B0000200000003000000D823000800000020F5
:1023C00088000000C4140008602400088800002071
:1023D00048060000D41400080000000004000000BB
:1023E0000100000000002000BD2200087D2300083D
:1023F00089220008010000000000000025220008DA
:1024000079220008F121000801000000000000000E
:1024100000000000000000000000000000000000BC
:1024200000000000000000000000000000000000AC
:10243000000000000000000000000000000000009C
:10244000000000000000000000000000000000008C
:10245000000000000000000000000000000000007C
:04000005080000C12E
:00000001FF
